{"abi":[{"type":"constructor","inputs":[{"name":"defaultAdmin","type":"address","internalType":"address"},{"name":"minter","type":"address","internalType":"address"},{"name":"name","type":"string","internalType":"string"},{"name":"symbol","type":"string","internalType":"string"}],"stateMutability":"nonpayable"},{"type":"function","name":"DEFAULT_ADMIN_ROLE","inputs":[],"outputs":[{"name":"","type":"bytes32","internalType":"bytes32"}],"stateMutability":"view"},{"type":"function","name":"MINTER_ROLE","inputs":[],"outputs":[{"name":"","type":"bytes32","internalType":"bytes32"}],"stateMutability":"view"},{"type":"function","name":"approve","inputs":[{"name":"to","type":"address","internalType":"address"},{"name":"tokenId","type":"uint256","internalType":"uint256"}],"outputs":[],"stateMutability":"nonpayable"},{"type":"function","name":"balanceOf","inputs":[{"name":"owner","type":"address","internalType":"address"}],"outputs":[{"name":"","type":"uint256","internalType":"uint256"}],"stateMutability":"view"},{"type":"function","name":"burn","inputs":[{"name":"tokenId","type":"uint256","internalType":"uint256"}],"outputs":[],"stateMutability":"nonpayable"},{"type":"function","name":"getApproved","inputs":[{"name":"tokenId","type":"uint256","internalType":"uint256"}],"outputs":[{"name":"","type":"address","internalType":"address"}],"stateMutability":"view"},{"type":"function","name":"getRoleAdmin","inputs":[{"name":"role","type":"bytes32","internalType":"bytes32"}],"outputs":[{"name":"","type":"bytes32","internalType":"bytes32"}],"stateMutability":"view"},{"type":"function","name":"grantRole","inputs":[{"name":"role","type":"bytes32","internalType":"bytes32"},{"name":"account","type":"address","internalType":"address"}],"outputs":[],"stateMutability":"nonpayable"},{"type":"function","name":"hasRole","inputs":[{"name":"role","type":"bytes32","internalType":"bytes32"},{"name":"account","type":"address","internalType":"address"}],"outputs":[{"name":"","type":"bool","internalType":"bool"}],"stateMutability":"view"},{"type":"function","name":"isApprovedForAll","inputs":[{"name":"owner","type":"address","internalType":"address"},{"name":"operator","type":"address","internalType":"address"}],"outputs":[{"name":"","type":"bool","internalType":"bool"}],"stateMutability":"view"},{"type":"function","name":"name","inputs":[],"outputs":[{"name":"","type":"string","internalType":"string"}],"stateMutability":"view"},{"type":"function","name":"ownerOf","inputs":[{"name":"tokenId","type":"uint256","internalType":"uint256"}],"outputs":[{"name":"","type":"address","internalType":"address"}],"stateMutability":"view"},{"type":"function","name":"renounceRole","inputs":[{"name":"role","type":"bytes32","internalType":"bytes32"},{"name":"callerConfirmation","type":"address","internalType":"address"}],"outputs":[],"stateMutability":"nonpayable"},{"type":"function","name":"revokeRole","inputs":[{"name":"role","type":"bytes32","internalType":"bytes32"},{"name":"account","type":"address","internalType":"address"}],"outputs":[],"stateMutability":"nonpayable"},{"type":"function","name":"safeMint","inputs":[{"name":"to","type":"address","internalType":"address"},{"name":"tokenId","type":"uint256","internalType":"uint256"}],"outputs":[],"stateMutability":"nonpayable"},{"type":"function","name":"safeTransferFrom","inputs":[{"name":"from","type":"address","internalType":"address"},{"name":"to","type":"address","internalType":"address"},{"name":"tokenId","type":"uint256","internalType":"uint256"}],"outputs":[],"stateMutability":"nonpayable"},{"type":"function","name":"safeTransferFrom","inputs":[{"name":"from","type":"address","internalType":"address"},{"name":"to","type":"address","internalType":"address"},{"name":"tokenId","type":"uint256","internalType":"uint256"},{"name":"data","type":"bytes","internalType":"bytes"}],"outputs":[],"stateMutability":"nonpayable"},{"type":"function","name":"setApprovalForAll","inputs":[{"name":"operator","type":"address","internalType":"address"},{"name":"approved","type":"bool","internalType":"bool"}],"outputs":[],"stateMutability":"nonpayable"},{"type":"function","name":"supportsInterface","inputs":[{"name":"interfaceId","type":"bytes4","internalType":"bytes4"}],"outputs":[{"name":"","type":"bool","internalType":"bool"}],"stateMutability":"view"},{"type":"function","name":"symbol","inputs":[],"outputs":[{"name":"","type":"string","internalType":"string"}],"stateMutability":"view"},{"type":"function","name":"tokenByIndex","inputs":[{"name":"index","type":"uint256","internalType":"uint256"}],"outputs":[{"name":"","type":"uint256","internalType":"uint256"}],"stateMutability":"view"},{"type":"function","name":"tokenOfOwnerByIndex","inputs":[{"name":"owner","type":"address","internalType":"address"},{"name":"index","type":"uint256","internalType":"uint256"}],"outputs":[{"name":"","type":"uint256","internalType":"uint256"}],"stateMutability":"view"},{"type":"function","name":"tokenURI","inputs":[{"name":"tokenId","type":"uint256","internalType":"uint256"}],"outputs":[{"name":"","type":"string","internalType":"string"}],"stateMutability":"view"},{"type":"function","name":"totalSupply","inputs":[],"outputs":[{"name":"","type":"uint256","internalType":"uint256"}],"stateMutability":"view"},{"type":"function","name":"transferFrom","inputs":[{"name":"from","type":"address","internalType":"address"},{"name":"to","type":"address","internalType":"address"},{"name":"tokenId","type":"uint256","internalType":"uint256"}],"outputs":[],"stateMutability":"nonpayable"},{"type":"event","name":"Approval","inputs":[{"name":"owner","type":"address","indexed":true,"internalType":"address"},{"name":"approved","type":"address","indexed":true,"internalType":"address"},{"name":"tokenId","type":"uint256","indexed":true,"internalType":"uint256"}],"anonymous":false},{"type":"event","name":"ApprovalForAll","inputs":[{"name":"owner","type":"address","indexed":true,"internalType":"address"},{"name":"operator","type":"address","indexed":true,"internalType":"address"},{"name":"approved","type":"bool","indexed":false,"internalType":"bool"}],"anonymous":false},{"type":"event","name":"RoleAdminChanged","inputs":[{"name":"role","type":"bytes32","indexed":true,"internalType":"bytes32"},{"name":"previousAdminRole","type":"bytes32","indexed":true,"internalType":"bytes32"},{"name":"newAdminRole","type":"bytes32","indexed":true,"internalType":"bytes32"}],"anonymous":false},{"type":"event","name":"RoleGranted","inputs":[{"name":"role","type":"bytes32","indexed":true,"internalType":"bytes32"},{"name":"account","type":"address","indexed":true,"internalType":"address"},{"name":"sender","type":"address","indexed":true,"internalType":"address"}],"anonymous":false},{"type":"event","name":"RoleRevoked","inputs":[{"name":"role","type":"bytes32","indexed":true,"internalType":"bytes32"},{"name":"account","type":"address","indexed":true,"internalType":"address"},{"name":"sender","type":"address","indexed":true,"internalType":"address"}],"anonymous":false},{"type":"event","name":"Transfer","inputs":[{"name":"from","type":"address","indexed":true,"internalType":"address"},{"name":"to","type":"address","indexed":true,"internalType":"address"},{"name":"tokenId","type":"uint256","indexed":true,"internalType":"uint256"}],"anonymous":false},{"type":"error","name":"AccessControlBadConfirmation","inputs":[]},{"type":"error","name":"AccessControlUnauthorizedAccount","inputs":[{"name":"account","type":"address","internalType":"address"},{"name":"neededRole","type":"bytes32","internalType":"bytes32"}]},{"type":"error","name":"ERC721EnumerableForbiddenBatchMint","inputs":[]},{"type":"error","name":"ERC721IncorrectOwner","inputs":[{"name":"sender","type":"address","internalType":"address"},{"name":"tokenId","type":"uint256","internalType":"uint256"},{"name":"owner","type":"address","internalType":"address"}]},{"type":"error","name":"ERC721InsufficientApproval","inputs":[{"name":"operator","type":"address","internalType":"address"},{"name":"tokenId","type":"uint256","internalType":"uint256"}]},{"type":"error","name":"ERC721InvalidApprover","inputs":[{"name":"approver","type":"address","internalType":"address"}]},{"type":"error","name":"ERC721InvalidOperator","inputs":[{"name":"operator","type":"address","internalType":"address"}]},{"type":"error","name":"ERC721InvalidOwner","inputs":[{"name":"owner","type":"address","internalType":"address"}]},{"type":"error","name":"ERC721InvalidReceiver","inputs":[{"name":"receiver","type":"address","internalType":"address"}]},{"type":"error","name":"ERC721InvalidSender","inputs":[{"name":"sender","type":"address","internalType":"address"}]},{"type":"error","name":"ERC721NonexistentToken","inputs":[{"name":"tokenId","type":"uint256","internalType":"uint256"}]},{"type":"error","name":"ERC721OutOfBoundsIndex","inputs":[{"name":"owner","type":"address","internalType":"address"},{"name":"index","type":"uint256","internalType":"uint256"}]}],"bytecode":{"object":"0x6080604052346100335761001d6100146101de565b92919091610259565b610025610038565b612aec6106f98239612aec90f35b61003e565b60405190565b5f80fd5b601f801991011690565b634e487b7160e01b5f52604160045260245ffd5b9061006a90610042565b810190811060018060401b0382111761008257604052565b61004c565b9061009a610093610038565b9283610060565b565b5f80fd5b5f80fd5b60018060a01b031690565b6100b8906100a4565b90565b6100c4816100af565b036100cb57565b5f80fd5b905051906100dc826100bb565b565b5f80fd5b5f80fd5b60018060401b038111610102576100fe602091610042565b0190565b61004c565b90825f9392825e0152565b90929192610127610122826100e6565b610087565b938185526020850190828401116101435761014192610107565b565b6100e2565b9080601f830112156101665781602061016393519101610112565b90565b6100de565b906080828203126101d957610182815f84016100cf565b9261019082602085016100cf565b92604081015160018060401b0381116101d457836101af918301610148565b92606082015160018060401b0381116101cf576101cc9201610148565b90565b6100a0565b6100a0565b61009c565b6101fc6131e5803803806101f181610087565b92833981019061016b565b90919293565b90565b90565b5f1b90565b61022161021c61022692610202565b610208565b610205565b90565b6102325f61020d565b90565b7f9f2df0fed2c77648de5860a4cc508cd0818c85b8b8a1ab4ceeef8d981c8956a690565b61026a610285946102779394610288565b610272610229565b6105e5565b50610280610235565b6105e5565b50565b9061029291610294565b565b9061029e916102a0565b565b906102aa916102ac565b565b906102b69161050f565b565b5190565b634e487b7160e01b5f52602260045260245ffd5b90600160028304921680156102f0575b60208310146102eb57565b6102bc565b91607f16916102e0565b5f5260205f2090565b601f602091010490565b1b90565b9190600861032c9102916103265f198461030d565b9261030d565b9181191691161790565b90565b90565b61035061034b61035592610336565b610339565b610336565b90565b90565b919061037161036c6103799361033c565b610358565b908354610311565b9055565b5f90565b6103939161038d61037d565b9161035b565b565b5b8181106103a1575050565b806103ae5f600193610381565b01610396565b9190601f81116103c4575b505050565b6103d06103f5936102fa565b9060206103dc84610303565b830193106103fd575b6103ee90610303565b0190610395565b5f80806103bf565b91506103ee819290506103e5565b1c90565b9061041f905f199060080261040b565b191690565b8161042e9161040f565b906002021790565b90610440816102b8565b9060018060401b0382116104fe576104628261045c85546102d0565b856103b4565b602090601f831160011461049657918091610485935f9261048a575b5050610424565b90555b565b90915001515f8061047e565b601f198316916104a5856102fa565b925f5b8181106104e6575091600293918560019694106104cc575b50505002019055610488565b6104dc910151601f84169061040f565b90555f80806104c0565b919360206001819287870151815501950192016104a8565b61004c565b9061050d91610436565b565b9061051d610524925f610503565b6001610503565b565b5f90565b151590565b61053890610205565b90565b906105459061052f565b5f5260205260405f2090565b61056561056061056a926100a4565b610339565b6100a4565b90565b61057690610551565b90565b6105829061056d565b90565b9061058f90610579565b5f5260205260405f2090565b906105a760ff91610208565b9181191691161790565b6105ba9061052a565b90565b90565b906105d56105d06105dc926105b1565b6105bd565b825461059b565b9055565b5f0190565b6105ed610526565b506106026105fc8284906106bd565b1561052a565b5f1461068b5761062a60016106255f61061d600a869061053b565b018590610585565b6105c0565b906106336106eb565b9061067061066a6106647f2f8788117e7eff1d82e926ec794901d17c78024a50270940304540a733656f0d9561052f565b92610579565b92610579565b92610679610038565b80610683816105e0565b0390a4600190565b50505f90565b5f1c90565b60ff1690565b6106a86106ad91610691565b610696565b90565b6106ba905461069c565b90565b6106e4915f6106d96106df936106d1610526565b50600a61053b565b01610585565b6106b0565b90565b5f90565b6106f36106e7565b50339056fe60806040526004361015610013575b610be0565b61001d5f356101ac565b806301ffc9a7146101a757806306fdde03146101a2578063081812fc1461019d578063095ea7b31461019857806318160ddd1461019357806323b872dd1461018e578063248a9ca3146101895780632f2ff15d146101845780632f745c591461017f57806336568abe1461017a57806342842e0e1461017557806342966c68146101705780634f6ccce71461016b5780636352211e1461016657806370a082311461016157806391d148541461015c57806395d89b4114610157578063a144819414610152578063a217fddf1461014d578063a22cb46514610148578063b88d4fde14610143578063c87b56dd1461013e578063d539139314610139578063d547741f146101345763e985e9c50361000e57610baa565b610b49565b610b14565b610ab0565b610a79565b610905565b610880565b610811565b6107dc565b6107a6565b610771565b61071e565b6106e9565b6106b6565b610682565b61064e565b610618565b6105e4565b610582565b6104e8565b610479565b610423565b610399565b6102e7565b610238565b60e01c90565b60405190565b5f80fd5b5f80fd5b5f80fd5b63ffffffff60e01b1690565b6101d9816101c4565b036101e057565b5f80fd5b905035906101f1826101d0565b565b9060208282031261020c57610209915f016101e4565b90565b6101bc565b151590565b61021f90610211565b9052565b9190610236905f60208501940190610216565b565b346102685761026461025361024e3660046101f3565b610be8565b61025b6101b2565b91829182610223565b0390f35b6101b8565b5f91031261027757565b6101bc565b5190565b60209181520190565b90825f9392825e0152565b601f801991011690565b6102bd6102c66020936102cb936102b48161027c565b93848093610280565b95869101610289565b610294565b0190565b6102e49160208201915f81840391015261029e565b90565b34610317576102f736600461026d565b610313610302610d19565b61030a6101b2565b918291826102cf565b0390f35b6101b8565b90565b6103288161031c565b0361032f57565b5f80fd5b905035906103408261031f565b565b9060208282031261035b57610358915f01610333565b90565b6101bc565b60018060a01b031690565b61037490610360565b90565b6103809061036b565b9052565b9190610397905f60208501940190610377565b565b346103c9576103c56103b46103af366004610342565b610d32565b6103bc6101b2565b91829182610384565b0390f35b6101b8565b6103d78161036b565b036103de57565b5f80fd5b905035906103ef826103ce565b565b9190604083820312610419578061040d610416925f86016103e2565b93602001610333565b90565b6101bc565b5f0190565b346104525761043c6104363660046103f1565b90610d51565b6104446101b2565b8061044e8161041e565b0390f35b6101b8565b6104609061031c565b9052565b9190610477905f60208501940190610457565b565b346104a95761048936600461026d565b6104a5610494610d6f565b61049c6101b2565b91829182610464565b0390f35b6101b8565b90916060828403126104e3576104e06104c9845f85016103e2565b936104d781602086016103e2565b93604001610333565b90565b6101bc565b34610517576105016104fb3660046104ae565b91610de2565b6105096101b2565b806105138161041e565b0390f35b6101b8565b90565b6105288161051c565b0361052f57565b5f80fd5b905035906105408261051f565b565b9060208282031261055b57610558915f01610533565b90565b6101bc565b6105699061051c565b9052565b9190610580905f60208501940190610560565b565b346105b2576105ae61059d610598366004610542565b610ecc565b6105a56101b2565b9182918261056d565b0390f35b6101b8565b91906040838203126105df57806105d36105dc925f8601610533565b936020016103e2565b90565b6101bc565b34610613576105fd6105f73660046105b7565b90610f18565b6106056101b2565b8061060f8161041e565b0390f35b6101b8565b346106495761064561063461062e3660046103f1565b90610fe7565b61063c6101b2565b91829182610464565b0390f35b6101b8565b3461067d576106676106613660046105b7565b9061104e565b61066f6101b2565b806106798161041e565b0390f35b6101b8565b346106b15761069b6106953660046104ae565b916110e7565b6106a36101b2565b806106ad8161041e565b0390f35b6101b8565b346106e4576106ce6106c9366004610342565b6110fd565b6106d66101b2565b806106e08161041e565b0390f35b6101b8565b34610719576107156107046106ff366004610342565b61118b565b61070c6101b2565b91829182610464565b0390f35b6101b8565b3461074e5761074a610739610734366004610342565b6111f2565b6107416101b2565b91829182610384565b0390f35b6101b8565b9060208282031261076c57610769915f016103e2565b90565b6101bc565b346107a15761079d61078c610787366004610753565b61121d565b6107946101b2565b91829182610464565b0390f35b6101b8565b346107d7576107d36107c26107bc3660046105b7565b906112c0565b6107ca6101b2565b91829182610223565b0390f35b6101b8565b3461080c576107ec36600461026d565b6108086107f76112ea565b6107ff6101b2565b918291826102cf565b0390f35b6101b8565b346108405761082a6108243660046103f1565b90611328565b6108326101b2565b8061083c8161041e565b0390f35b6101b8565b90565b5f1b90565b61086161085c61086692610845565b610848565b61051c565b90565b6108725f61084d565b90565b61087d610869565b90565b346108b05761089036600461026d565b6108ac61089b610875565b6108a36101b2565b9182918261056d565b0390f35b6101b8565b6108be81610211565b036108c557565b5f80fd5b905035906108d6826108b5565b565b919060408382031261090057806108f46108fd925f86016103e2565b936020016108c9565b90565b6101bc565b346109345761091e6109183660046108d8565b90611334565b6109266101b2565b806109308161041e565b0390f35b6101b8565b5f80fd5b5f80fd5b634e487b7160e01b5f52604160045260245ffd5b9061095f90610294565b810190811067ffffffffffffffff82111761097957604052565b610941565b9061099161098a6101b2565b9283610955565b565b67ffffffffffffffff81116109b1576109ad602091610294565b0190565b610941565b90825f939282370152565b909291926109d66109d182610993565b61097e565b938185526020850190828401116109f2576109f0926109b6565b565b61093d565b9080601f83011215610a1557816020610a12933591016109c1565b90565b610939565b90608082820312610a7457610a31815f84016103e2565b92610a3f82602085016103e2565b92610a4d8360408301610333565b92606082013567ffffffffffffffff8111610a6f57610a6c92016109f7565b90565b6101c0565b6101bc565b34610aab57610a95610a8c366004610a1a565b9291909161134a565b610a9d6101b2565b80610aa78161041e565b0390f35b6101b8565b34610ae057610adc610acb610ac6366004610342565b611410565b610ad36101b2565b918291826102cf565b0390f35b6101b8565b7f9f2df0fed2c77648de5860a4cc508cd0818c85b8b8a1ab4ceeef8d981c8956a690565b610b11610ae5565b90565b34610b4457610b2436600461026d565b610b40610b2f610b09565b610b376101b2565b9182918261056d565b0390f35b6101b8565b34610b7857610b62610b5c3660046105b7565b906114a6565b610b6a6101b2565b80610b748161041e565b0390f35b6101b8565b9190604083820312610ba55780610b99610ba2925f86016103e2565b936020016103e2565b90565b6101bc565b34610bdb57610bd7610bc6610bc0366004610b7d565b906114c8565b610bce6101b2565b91829182610223565b0390f35b6101b8565b5f80fd5b5f90565b610bfa90610bf4610be4565b506114f0565b90565b606090565b634e487b7160e01b5f52602260045260245ffd5b9060016002830492168015610c36575b6020831014610c3157565b610c02565b91607f1691610c26565b60209181520190565b5f5260205f2090565b905f9291805490610c6c610c6583610c16565b8094610c40565b916001811690815f14610cc35750600114610c87575b505050565b610c949192939450610c49565b915f925b818410610cab57505001905f8080610c82565b60018160209295939554848601520191019290610c98565b92949550505060ff19168252151560200201905f8080610c82565b90610ce891610c52565b90565b90610d0b610d0492610cfb6101b2565b93848092610cde565b0383610955565b565b610d1690610ceb565b90565b610d21610bfd565b50610d2b5f610d0d565b90565b5f90565b610d4e90610d3e610d2e565b50610d4881611530565b506115c8565b90565b90610d659190610d5f6115e7565b916115f4565b565b5f90565b5490565b610d77610d67565b50610d826008610d6b565b90565b90565b610d9c610d97610da192610845565b610d85565b610360565b90565b610dad90610d88565b90565b604090610dd9610de09496959396610dcf60608401985f850190610377565b6020830190610457565b0190610377565b565b919080610dff610df9610df45f610da4565b61036b565b9161036b565b14610e5657610e179082610e116115e7565b91611604565b9182610e2b610e258361036b565b9161036b565b03610e3557505050565b610e529091925f9384936364283d7b60e01b855260048501610db0565b0390fd5b610e79610e625f610da4565b5f918291633250574960e11b835260048301610384565b0390fd5b5f90565b610e8a9061051c565b90565b90610e9790610e81565b5f5260205260405f2090565b5f1c90565b90565b610eb7610ebc91610ea3565b610ea8565b90565b610ec99054610eab565b90565b6001610ee5610eeb92610edd610e7d565b50600a610e8d565b01610ebf565b90565b90610f0991610f04610eff82610ecc565b61161d565b610f0b565b565b90610f1591611676565b50565b90610f2291610eee565b565b916020610f45929493610f3e60408201965f830190610377565b0190610457565b565b610f5b610f56610f6092610360565b610d85565b610360565b90565b610f6c90610f47565b90565b610f7890610f63565b90565b90610f8590610f6f565b5f5260205260405f2090565b610fa5610fa0610faa9261031c565b610d85565b61031c565b90565b90610fb790610f91565b5f5260205260405f2090565b90565b610fd2610fd791610ea3565b610fc3565b90565b610fe49054610fc6565b90565b610fef610d67565b508161100b6110056110008461121d565b61031c565b9161031c565b10156110305761102d91611023611028926006610f7b565b610fad565b610fda565b90565b61104a5f92839263295f44f760e21b845260048401610f24565b0390fd5b908061106961106361105e6115e7565b61036b565b9161036b565b0361107a5761107791611722565b50565b5f63334bd91960e11b8152806110926004820161041e565b0390fd5b67ffffffffffffffff81116110b4576110b0602091610294565b0190565b610941565b906110cb6110c683611096565b61097e565b918252565b6110d95f6110b9565b90565b6110e46110d0565b90565b916110fb92916110f56110dc565b9261134a565b565b6111199061110a5f610da4565b906111136115e7565b91611604565b50565b634e487b7160e01b5f52603260045260245ffd5b5f5260205f2090565b61114281610d6b565b82101561115c57611154600191611130565b910201905f90565b61111c565b1c90565b61117590600861117a9302611161565b610fc3565b90565b906111889154611165565b90565b611193610d67565b50806111ae6111a86111a3610d6f565b61031c565b9161031c565b10156111cb576111c26111c8916008611139565b9061117d565b90565b6111d45f610da4565b6111ee5f92839263295f44f760e21b845260048401610f24565b0390fd5b611204906111fe610d2e565b50611530565b90565b9061121190610f6f565b5f5260205260405f2090565b611225610d67565b508061124161123b6112365f610da4565b61036b565b9161036b565b1461125c57611254611259916003611207565b610fda565b90565b61127f6112685f610da4565b5f9182916322718ad960e21b835260048301610384565b0390fd5b9061128d90610f6f565b5f5260205260405f2090565b60ff1690565b6112ab6112b091610ea3565b611299565b90565b6112bd905461129f565b90565b6112e7915f6112dc6112e2936112d4610be4565b50600a610e8d565b01611283565b6112b3565b90565b6112f2610bfd565b506112fd6001610d0d565b90565b9061131a91611315611310610ae5565b61161d565b61131c565b565b90611326916117c4565b565b9061133291611300565b565b611348916113406115e7565b9190916117da565b565b9161136e939161135c84828491610de2565b6113646115e7565b93909192936119a4565b565b90565b5190565b61138b61138661139092610845565b610d85565b61031c565b90565b61139b6110d0565b90565b905090565b6113c86113bf926020926113b68161027c565b9485809361139e565b93849101610289565b0190565b6113da906113e093926113a3565b906113a3565b90565b611402929161140e916113f46101b2565b9485926020840192836113cc565b90810382520383610955565b565b611418610bfd565b5061142281611530565b5061142b611af8565b9061143d61143883611370565b611373565b61144f6114495f611377565b9161031c565b115f1461146d576114636114699291611bc9565b906113e3565b5b90565b5050611477611393565b61146a565b906114979161149261148d82610ecc565b61161d565b611499565b565b906114a391611722565b50565b906114b09161147c565b565b906114bc90610f6f565b5f5260205260405f2090565b6114ed916114e36114e8926114db610be4565b5060056114b2565b611283565b6112b3565b90565b6114f8610be4565b508061151361150d637965db0b60e01b6101c4565b916101c4565b14908115611520575b5090565b61152a9150611c72565b5f61151c565b611538610d2e565b5061154281611cb2565b908161155e6115586115535f610da4565b61036b565b9161036b565b14611567575090565b611582905f918291637e27328960e01b835260048301610464565b0390fd5b9061159090610f91565b5f5260205260405f2090565b60018060a01b031690565b6115b36115b891610ea3565b61159c565b90565b6115c590546115a7565b90565b6115df6115e4916115d7610d2e565b506004611586565b6115bb565b90565b6115ef610d2e565b503390565b916116029291600192611d0f565b565b9161161a92611611610d2e565b50919091611e59565b90565b61162f906116296115e7565b90611f50565b565b9061163d60ff91610848565b9181191691161790565b61165090610211565b90565b90565b9061166b61166661167292611647565b611653565b8254611631565b9055565b61167e610be4565b5061169361168d8284906112c0565b15610211565b5f1461171c576116bb60016116b65f6116ae600a8690610e8d565b018590611283565b611656565b906116c46115e7565b906117016116fb6116f57f2f8788117e7eff1d82e926ec794901d17c78024a50270940304540a733656f0d95610e81565b92610f6f565b92610f6f565b9261170a6101b2565b806117148161041e565b0390a4600190565b50505f90565b61172a610be4565b506117368183906112c0565b5f146117be5761175d5f6117585f611750600a8690610e8d565b018590611283565b611656565b906117666115e7565b906117a361179d6117977ff6391f5c32d9c69d2a47ea670b442974b53935d1edc7fd64eb21e047a839171b95610e81565b92610f6f565b92610f6f565b926117ac6101b2565b806117b68161041e565b0390a4600190565b50505f90565b906117d891906117d26110dc565b91611f8b565b565b919091826117f86117f26117ed5f610da4565b61036b565b9161036b565b1461186c5761181c82611817611810600585906114b2565b8690611283565b611656565b91909161186761185561184f7f17307eab39ab6107e8899845ad3d59bd9653f200f220920489ca2b5937696c3193610f6f565b93610f6f565b9361185e6101b2565b91829182610223565b0390a3565b611887835f918291630b61174360e31b835260048301610384565b0390fd5b61189490610f47565b90565b6118a09061188b565b90565b6118ac90610f63565b90565b60e01b90565b905051906118c2826101d0565b565b906020828203126118dd576118da915f016118b5565b90565b6101bc565b60209181520190565b61190a6119136020936119189361190181611373565b938480936118e2565b95869101610289565b610294565b0190565b909261194f9061194561195c969461193b60808601975f870190610377565b6020850190610377565b6040830190610457565b60608184039101526118eb565b90565b9061197161196c83610993565b61097e565b918252565b606090565b3d5f146119965761198b3d61195f565b903d5f602084013e5b565b61199e611976565b90611994565b9193843b6119ba6119b45f611377565b9161031c565b116119c7575b5050505050565b6119ff5f602094611a0a6119e26119dd8a611897565b6118a3565b9463150b7a029296986119f36101b2565b998a98899788966118af565b86526004860161191c565b03925af180915f92611ac8575b50155f14611a8557506001611a3257505b5f808080806119c0565b611a3a61197b565b90611a4482611373565b611a56611a505f611377565b9161031c565b145f14611a7c57611a78905f918291633250574960e11b835260048301610384565b0390fd5b50602081519101fd5b611a9e611a98630a85bd0160e11b6101c4565b916101c4565b03611aa95750611a28565b611ac4905f918291633250574960e11b835260048301610384565b0390fd5b611aea91925060203d8111611af1575b611ae28183610955565b8101906118c4565b905f611a17565b503d611ad8565b611b00610bfd565b50611b09611393565b90565b90565b611b23611b1e611b2892611b0c565b610d85565b61031c565b90565b90611b36910161031c565b90565b369037565b90611b63611b4b836110b9565b92602080611b598693611096565b9201910390611b39565b565b6001611b71910361031c565b90565b90565b611b8b611b86611b9092611b74565b610d85565b61031c565b90565b634e487b7160e01b5f52601260045260245ffd5b611bb3611bb99161031c565b9161031c565b908115611bc4570490565b611b93565b611bd1610bfd565b50611bee611bde8261212d565b611be86001611b0f565b90611b2b565b90611bf882611b3e565b91611c01610d67565b5060208301015b600115611c6b57611c1b611c4791611b65565b916f181899199a1a9b1b9c1cb0b131b232b360811b600a82061a8353611c41600a611b77565b90611ba7565b80611c5a611c545f611377565b9161031c565b14611c655790611c08565b50505b90565b5050611c68565b611c7a610be4565b5080611c95611c8f63780e9d6360e01b6101c4565b916101c4565b14908115611ca2575b5090565b611cac915061238e565b5f611c9e565b611cc9611cce91611cc1610d2e565b506002611586565b6115bb565b90565b90611ce260018060a01b0391610848565b9181191691161790565b90565b90611d04611cff611d0b92610f6f565b611cec565b8254611cd1565b9055565b919092808015611e36575b611d38575b505090611d31611d3692916004611586565b611cef565b565b611d4184611530565b9180611d5d611d57611d525f610da4565b61036b565b9161036b565b141580611e1b575b80611e01575b611de2575091611d3191611d369493611d87575b509192611d1f565b818490611dc6611dc0611dba7f8c5be1e5ebec7d5bd14f71427d1e84f3dd0314c0f7b2291e5b200ac8c7c3b92595610f6f565b92610f6f565b92610f91565b92611dcf6101b2565b80611dd98161041e565b0390a45f611d7f565b611dfd905f91829163a9fbf51f60e01b835260048301610384565b0390fd5b50611e16611e108483906114c8565b15610211565b611d6b565b5082611e2f611e298361036b565b9161036b565b1415611d65565b5081611e52611e4c611e475f610da4565b61036b565b9161036b565b1415611d1a565b9091611e7290611e67610d2e565b50829084909161243d565b9182611e8e611e88611e835f610da4565b61036b565b9161036b565b145f14611eff57611e9e81612738565b5b81611eba611eb4611eaf5f610da4565b61036b565b9161036b565b145f14611ecf57611ecb9150612839565b5b90565b82611ee2611edc8461036b565b9161036b565b03611eef575b5050611ecc565b611ef8916127a4565b5f80611ee8565b82611f12611f0c8461036b565b9161036b565b03611f1d575b611e9f565b611f2883829061261d565b611f18565b916020611f4e929493611f4760408201965f830190610377565b0190610560565b565b90611f65611f5f8383906112c0565b15610211565b611f6d575050565b611f875f92839263e2517d3f60e01b845260048401611f2d565b0390fd5b9091611fb792611f9c8382906128d0565b611fa46115e7565b92611fae5f610da4565b909192936119a4565b565b90565b611fd0611fcb611fd592611fb9565b610d85565b61031c565b90565b90565b611fef611fea611ff492611fd8565b610d85565b61031c565b90565b90565b61200e61200961201392611ff7565b610d85565b61031c565b90565b90565b61202d61202861203292612016565b610d85565b61031c565b90565b90565b61204c61204761205192612035565b610d85565b61031c565b90565b90565b61206b61206661207092612054565b610d85565b61031c565b90565b90565b61208a61208561208f92612073565b610d85565b61031c565b90565b90565b6120a96120a46120ae92612092565b610d85565b61031c565b90565b90565b6120c86120c36120cd926120b1565b610d85565b61031c565b90565b90565b6120e76120e26120ec926120d0565b610d85565b61031c565b90565b90565b61210661210161210b926120ef565b610d85565b61031c565b90565b90565b61212561212061212a9261210e565b610d85565b61031c565b90565b612135610d67565b5061213f5f611377565b908061216e6121687a184f03e93ff9f4daa797ed6e38ed64bf6a1f010000000000000000611fbc565b9161031c565b1015612346575b806121966121906d04ee2d6d415b85acef8100000000611ffa565b9161031c565b101561230b575b806121b76121b1662386f26fc10000612038565b9161031c565b10156122d7575b806121d56121cf6305f5e100612076565b9161031c565b10156122a6575b806121f16121eb6127106120b4565b9161031c565b1015612277575b8061220c61220660646120f2565b9161031c565b1015612249575b612226612220600a611b77565b9161031c565b1015612230575b90565b6122449061223e6001611b0f565b90611b2b565b61222d565b6122606122719161225a60646120f2565b90611ba7565b9161226b6002612111565b90611b2b565b90612213565b61228f6122a0916122896127106120b4565b90611ba7565b9161229a60046120d3565b90611b2b565b906121f8565b6122c06122d1916122ba6305f5e100612076565b90611ba7565b916122cb6008612095565b90611b2b565b906121dc565b6122f4612305916122ee662386f26fc10000612038565b90611ba7565b916122ff6010612057565b90611b2b565b906121be565b61232f612340916123296d04ee2d6d415b85acef8100000000611ffa565b90611ba7565b9161233a6020612019565b90611b2b565b9061219d565b612377612388916123717a184f03e93ff9f4daa797ed6e38ed64bf6a1f010000000000000000611fbc565b90611ba7565b916123826040611fdb565b90611b2b565b90612175565b612396610be4565b50806123b16123ab6380ac58cd60e01b6101c4565b916101c4565b1480156123d5575b9081156123c5575b5090565b6123cf9150612974565b5f6123c1565b50806123f06123ea635b5e139f60e01b6101c4565b916101c4565b146123b9565b90612401910361031c565b90565b906124105f1991610848565b9181191691161790565b90565b9061243261242d61243992610f91565b61241a565b8254612404565b9055565b90612446610d2e565b5061245081611cb2565b928061246c6124666124615f610da4565b61036b565b9161036b565b036125ab575b508261248e6124886124835f610da4565b61036b565b9161036b565b03612557575b816124af6124a96124a45f610da4565b61036b565b9161036b565b03612521575b6124ca826124c560028490611586565b611cef565b82916125086125026124fc7fddf252ad1be2c89b69c2b068fc378daa952ba7f163c4a11628f55a4df523b3ef95610f6f565b92610f6f565b92610f91565b926125116101b2565b8061251b8161041e565b0390a490565b61255261252e6001611b0f565b61254c61253d60038690611207565b9161254783610fda565b611b2b565b9061241d565b6124b5565b6125756125635f610da4565b8261256d5f610da4565b905f92611d0f565b6125a66125826001611b0f565b6125a061259160038790611207565b9161259b83610fda565b6123f6565b9061241d565b612494565b6125b8908490839161299a565b5f612472565b1b90565b919060086125dd9102916125d75f19846125be565b926125be565b9181191691161790565b91906125fd6125f861260593610f91565b61241a565b9083546125c2565b9055565b61261b91612615610d67565b916125e7565b565b612682612687925f9261267d846126786126368461121d565b9461265661264e61264960078490610fad565b610fda565b956006610f7b565b948061266a6126648961031c565b9161031c565b03612689575b506007610fad565b612609565b610fad565b612609565b565b6126c5906126c06126a361269e898b90610fad565b610fda565b916126b8836126b38b8490610fad565b61241d565b916007610fad565b61241d565b5f612670565b90565b5f5260205f2090565b5490565b6126e4816126d7565b8210156126fe576126f66001916126ce565b910201905f90565b61111c565b9081549168010000000000000000831015612733578261272b916001612731950181556126db565b906125e7565b565b610941565b6127699061275a6127496008610d6b565b61275560098490610fad565b61241d565b61276460086126cb565b612703565b565b634e487b7160e01b5f52601160045260245ffd5b61278e6127949193929361031c565b9261031c565b820391821161279f57565b61276b565b906127ef6127f4926127e76127cb6127bb8361121d565b6127c56001611b0f565b9061277f565b916127e26127db86926006610f7b565b8490610fad565b61241d565b916007610fad565b61241d565b565b634e487b7160e01b5f52603160045260245ffd5b612813816126d7565b801561283457600190039061283161282b83836126db565b90612609565b55565b6127f6565b5f6128b76128bc926128b06128616128516008610d6b565b61285b6001611b0f565b9061277f565b6128ab61288c61288661287e61287960098890610fad565b610fda565b936008611139565b9061117d565b916128a38361289d60088490611139565b906125e7565b916009610fad565b61241d565b6009610fad565b612609565b6128ce6128c960086126cb565b61280a565b565b90816128ec6128e66128e15f610da4565b61036b565b9161036b565b1461294d5761290591906128ff5f610da4565b91611604565b61291f6129196129145f610da4565b61036b565b9161036b565b0361292657565b6129496129325f610da4565b5f9182916339e3563760e11b835260048301610384565b0390fd5b6129706129595f610da4565b5f918291633250574960e11b835260048301610384565b0390fd5b61297c610be4565b506129966129906301ffc9a760e01b6101c4565b916101c4565b1490565b6129af6129a982848691612a16565b15610211565b6129b857505050565b6129d26129cc6129c75f610da4565b61036b565b9161036b565b145f146129f8576129f4825f918291637e27328960e01b835260048301610464565b0390fd5b612a125f92839263177e802f60e01b845260048401610f24565b0390fd5b9190612a20610be4565b5080612a3c612a36612a315f610da4565b61036b565b9161036b565b14159283612a4b575b50505090565b8091929350612a62612a5c8461036b565b9161036b565b14908115612aa4575b50918215612a7e575b50505f8080612a45565b612a9c919250612a90612a96916115c8565b9261036b565b9161036b565b145f80612a74565b612ab0915082906114c8565b5f612a6b56fea264697066735822122056a11ed35d63072075060421facfec462b659988bb475045d3be44954269d23864736f6c634300081e0033","linkReferences":{}},"methodIdentifiers":{"DEFAULT_ADMIN_ROLE()":"a217fddf","MINTER_ROLE()":"d5391393","approve(address,uint256)":"095ea7b3","balanceOf(address)":"70a08231","burn(uint256)":"42966c68","getApproved(uint256)":"081812fc","getRoleAdmin(bytes32)":"248a9ca3","grantRole(bytes32,address)":"2f2ff15d","hasRole(bytes32,address)":"91d14854","isApprovedForAll(address,address)":"e985e9c5","name()":"06fdde03","ownerOf(uint256)":"6352211e","renounceRole(bytes32,address)":"36568abe","revokeRole(bytes32,address)":"d547741f","safeMint(address,uint256)":"a1448194","safeTransferFrom(address,address,uint256)":"42842e0e","safeTransferFrom(address,address,uint256,bytes)":"b88d4fde","setApprovalForAll(address,bool)":"a22cb465","supportsInterface(bytes4)":"01ffc9a7","symbol()":"95d89b41","tokenByIndex(uint256)":"4f6ccce7","tokenOfOwnerByIndex(address,uint256)":"2f745c59","tokenURI(uint256)":"c87b56dd","totalSupply()":"18160ddd","transferFrom(address,address,uint256)":"23b872dd"},"id":42}