{"abi":[{"type":"constructor","inputs":[{"name":"defaultAdmin","type":"address","internalType":"address"},{"name":"minter","type":"address","internalType":"address"},{"name":"name","type":"string","internalType":"string"},{"name":"symbol","type":"string","internalType":"string"}],"stateMutability":"nonpayable"},{"type":"function","name":"DEFAULT_ADMIN_ROLE","inputs":[],"outputs":[{"name":"","type":"bytes32","internalType":"bytes32"}],"stateMutability":"view"},{"type":"function","name":"MINTER_ROLE","inputs":[],"outputs":[{"name":"","type":"bytes32","internalType":"bytes32"}],"stateMutability":"view"},{"type":"function","name":"approve","inputs":[{"name":"to","type":"address","internalType":"address"},{"name":"tokenId","type":"uint256","internalType":"uint256"}],"outputs":[],"stateMutability":"nonpayable"},{"type":"function","name":"balanceOf","inputs":[{"name":"owner","type":"address","internalType":"address"}],"outputs":[{"name":"","type":"uint256","internalType":"uint256"}],"stateMutability":"view"},{"type":"function","name":"getApproved","inputs":[{"name":"tokenId","type":"uint256","internalType":"uint256"}],"outputs":[{"name":"","type":"address","internalType":"address"}],"stateMutability":"view"},{"type":"function","name":"getRoleAdmin","inputs":[{"name":"role","type":"bytes32","internalType":"bytes32"}],"outputs":[{"name":"","type":"bytes32","internalType":"bytes32"}],"stateMutability":"view"},{"type":"function","name":"grantRole","inputs":[{"name":"role","type":"bytes32","internalType":"bytes32"},{"name":"account","type":"address","internalType":"address"}],"outputs":[],"stateMutability":"nonpayable"},{"type":"function","name":"hasRole","inputs":[{"name":"role","type":"bytes32","internalType":"bytes32"},{"name":"account","type":"address","internalType":"address"}],"outputs":[{"name":"","type":"bool","internalType":"bool"}],"stateMutability":"view"},{"type":"function","name":"isApprovedForAll","inputs":[{"name":"owner","type":"address","internalType":"address"},{"name":"operator","type":"address","internalType":"address"}],"outputs":[{"name":"","type":"bool","internalType":"bool"}],"stateMutability":"view"},{"type":"function","name":"name","inputs":[],"outputs":[{"name":"","type":"string","internalType":"string"}],"stateMutability":"view"},{"type":"function","name":"ownerOf","inputs":[{"name":"tokenId","type":"uint256","internalType":"uint256"}],"outputs":[{"name":"","type":"address","internalType":"address"}],"stateMutability":"view"},{"type":"function","name":"renounceRole","inputs":[{"name":"role","type":"bytes32","internalType":"bytes32"},{"name":"callerConfirmation","type":"address","internalType":"address"}],"outputs":[],"stateMutability":"nonpayable"},{"type":"function","name":"revokeRole","inputs":[{"name":"role","type":"bytes32","internalType":"bytes32"},{"name":"account","type":"address","internalType":"address"}],"outputs":[],"stateMutability":"nonpayable"},{"type":"function","name":"safeMint","inputs":[{"name":"to","type":"address","internalType":"address"},{"name":"uri","type":"string","internalType":"string"}],"outputs":[{"name":"","type":"uint256","internalType":"uint256"}],"stateMutability":"nonpayable"},{"type":"function","name":"safeTransferFrom","inputs":[{"name":"from","type":"address","internalType":"address"},{"name":"to","type":"address","internalType":"address"},{"name":"tokenId","type":"uint256","internalType":"uint256"}],"outputs":[],"stateMutability":"nonpayable"},{"type":"function","name":"safeTransferFrom","inputs":[{"name":"from","type":"address","internalType":"address"},{"name":"to","type":"address","internalType":"address"},{"name":"tokenId","type":"uint256","internalType":"uint256"},{"name":"data","type":"bytes","internalType":"bytes"}],"outputs":[],"stateMutability":"nonpayable"},{"type":"function","name":"setApprovalForAll","inputs":[{"name":"operator","type":"address","internalType":"address"},{"name":"approved","type":"bool","internalType":"bool"}],"outputs":[],"stateMutability":"nonpayable"},{"type":"function","name":"supportsInterface","inputs":[{"name":"interfaceId","type":"bytes4","internalType":"bytes4"}],"outputs":[{"name":"","type":"bool","internalType":"bool"}],"stateMutability":"view"},{"type":"function","name":"symbol","inputs":[],"outputs":[{"name":"","type":"string","internalType":"string"}],"stateMutability":"view"},{"type":"function","name":"tokenByIndex","inputs":[{"name":"index","type":"uint256","internalType":"uint256"}],"outputs":[{"name":"","type":"uint256","internalType":"uint256"}],"stateMutability":"view"},{"type":"function","name":"tokenOfOwnerByIndex","inputs":[{"name":"owner","type":"address","internalType":"address"},{"name":"index","type":"uint256","internalType":"uint256"}],"outputs":[{"name":"","type":"uint256","internalType":"uint256"}],"stateMutability":"view"},{"type":"function","name":"tokenURI","inputs":[{"name":"tokenId","type":"uint256","internalType":"uint256"}],"outputs":[{"name":"","type":"string","internalType":"string"}],"stateMutability":"view"},{"type":"function","name":"totalSupply","inputs":[],"outputs":[{"name":"","type":"uint256","internalType":"uint256"}],"stateMutability":"view"},{"type":"function","name":"transferFrom","inputs":[{"name":"from","type":"address","internalType":"address"},{"name":"to","type":"address","internalType":"address"},{"name":"tokenId","type":"uint256","internalType":"uint256"}],"outputs":[],"stateMutability":"nonpayable"},{"type":"event","name":"Approval","inputs":[{"name":"owner","type":"address","indexed":true,"internalType":"address"},{"name":"approved","type":"address","indexed":true,"internalType":"address"},{"name":"tokenId","type":"uint256","indexed":true,"internalType":"uint256"}],"anonymous":false},{"type":"event","name":"ApprovalForAll","inputs":[{"name":"owner","type":"address","indexed":true,"internalType":"address"},{"name":"operator","type":"address","indexed":true,"internalType":"address"},{"name":"approved","type":"bool","indexed":false,"internalType":"bool"}],"anonymous":false},{"type":"event","name":"BatchMetadataUpdate","inputs":[{"name":"_fromTokenId","type":"uint256","indexed":false,"internalType":"uint256"},{"name":"_toTokenId","type":"uint256","indexed":false,"internalType":"uint256"}],"anonymous":false},{"type":"event","name":"MetadataUpdate","inputs":[{"name":"_tokenId","type":"uint256","indexed":false,"internalType":"uint256"}],"anonymous":false},{"type":"event","name":"RoleAdminChanged","inputs":[{"name":"role","type":"bytes32","indexed":true,"internalType":"bytes32"},{"name":"previousAdminRole","type":"bytes32","indexed":true,"internalType":"bytes32"},{"name":"newAdminRole","type":"bytes32","indexed":true,"internalType":"bytes32"}],"anonymous":false},{"type":"event","name":"RoleGranted","inputs":[{"name":"role","type":"bytes32","indexed":true,"internalType":"bytes32"},{"name":"account","type":"address","indexed":true,"internalType":"address"},{"name":"sender","type":"address","indexed":true,"internalType":"address"}],"anonymous":false},{"type":"event","name":"RoleRevoked","inputs":[{"name":"role","type":"bytes32","indexed":true,"internalType":"bytes32"},{"name":"account","type":"address","indexed":true,"internalType":"address"},{"name":"sender","type":"address","indexed":true,"internalType":"address"}],"anonymous":false},{"type":"event","name":"Transfer","inputs":[{"name":"from","type":"address","indexed":true,"internalType":"address"},{"name":"to","type":"address","indexed":true,"internalType":"address"},{"name":"tokenId","type":"uint256","indexed":true,"internalType":"uint256"}],"anonymous":false},{"type":"error","name":"AccessControlBadConfirmation","inputs":[]},{"type":"error","name":"AccessControlUnauthorizedAccount","inputs":[{"name":"account","type":"address","internalType":"address"},{"name":"neededRole","type":"bytes32","internalType":"bytes32"}]},{"type":"error","name":"ERC721EnumerableForbiddenBatchMint","inputs":[]},{"type":"error","name":"ERC721IncorrectOwner","inputs":[{"name":"sender","type":"address","internalType":"address"},{"name":"tokenId","type":"uint256","internalType":"uint256"},{"name":"owner","type":"address","internalType":"address"}]},{"type":"error","name":"ERC721InsufficientApproval","inputs":[{"name":"operator","type":"address","internalType":"address"},{"name":"tokenId","type":"uint256","internalType":"uint256"}]},{"type":"error","name":"ERC721InvalidApprover","inputs":[{"name":"approver","type":"address","internalType":"address"}]},{"type":"error","name":"ERC721InvalidOperator","inputs":[{"name":"operator","type":"address","internalType":"address"}]},{"type":"error","name":"ERC721InvalidOwner","inputs":[{"name":"owner","type":"address","internalType":"address"}]},{"type":"error","name":"ERC721InvalidReceiver","inputs":[{"name":"receiver","type":"address","internalType":"address"}]},{"type":"error","name":"ERC721InvalidSender","inputs":[{"name":"sender","type":"address","internalType":"address"}]},{"type":"error","name":"ERC721NonexistentToken","inputs":[{"name":"tokenId","type":"uint256","internalType":"uint256"}]},{"type":"error","name":"ERC721OutOfBoundsIndex","inputs":[{"name":"owner","type":"address","internalType":"address"},{"name":"index","type":"uint256","internalType":"uint256"}]}],"bytecode":{"object":"0x608060405234801561000f575f5ffd5b50604051611d37380380611d3783398101604081905261002e916101f1565b81815f61003b83826102fb565b50600161004882826102fb565b5061005791505f90508561008c565b506100827f9f2df0fed2c77648de5860a4cc508cd0818c85b8b8a1ab4ceeef8d981c8956a68461008c565b50505050506103b5565b5f828152600b602090815260408083206001600160a01b038516845290915281205460ff16610130575f838152600b602090815260408083206001600160a01b03861684529091529020805460ff191660011790556100e83390565b6001600160a01b0316826001600160a01b0316847f2f8788117e7eff1d82e926ec794901d17c78024a50270940304540a733656f0d60405160405180910390a4506001610133565b505f5b92915050565b80516001600160a01b038116811461014f575f5ffd5b919050565b634e487b7160e01b5f52604160045260245ffd5b5f82601f830112610177575f5ffd5b81516001600160401b0381111561019057610190610154565b604051601f8201601f19908116603f011681016001600160401b03811182821017156101be576101be610154565b6040528181528382016020018510156101d5575f5ffd5b8160208501602083015e5f918101602001919091529392505050565b5f5f5f5f60808587031215610204575f5ffd5b61020d85610139565b935061021b60208601610139565b60408601519093506001600160401b03811115610236575f5ffd5b61024287828801610168565b606087015190935090506001600160401b0381111561025f575f5ffd5b61026b87828801610168565b91505092959194509250565b600181811c9082168061028b57607f821691505b6020821081036102a957634e487b7160e01b5f52602260045260245ffd5b50919050565b601f8211156102f657805f5260205f20601f840160051c810160208510156102d45750805b601f840160051c820191505b818110156102f3575f81556001016102e0565b50505b505050565b81516001600160401b0381111561031457610314610154565b610328816103228454610277565b846102af565b6020601f82116001811461035a575f83156103435750848201515b5f19600385901b1c1916600184901b1784556102f3565b5f84815260208120601f198516915b828110156103895787850151825560209485019460019092019101610369565b50848210156103a657868401515f19600387901b60f8161c191681555b50505050600190811b01905550565b611975806103c25f395ff3fe608060405234801561000f575f5ffd5b5060043610610153575f3560e01c80636352211e116100bf578063b88d4fde11610079578063b88d4fde146102d5578063c87b56dd146102e8578063d204c45e146102fb578063d53913931461030e578063d547741f14610335578063e985e9c514610348575f5ffd5b80636352211e1461027a57806370a082311461028d57806391d14854146102a057806395d89b41146102b3578063a217fddf146102bb578063a22cb465146102c2575f5ffd5b8063248a9ca311610110578063248a9ca3146101f95780632f2ff15d1461021b5780632f745c591461022e57806336568abe1461024157806342842e0e146102545780634f6ccce714610267575f5ffd5b806301ffc9a71461015757806306fdde031461017f578063081812fc14610194578063095ea7b3146101bf57806318160ddd146101d457806323b872dd146101e6575b5f5ffd5b61016a61016536600461142c565b61035b565b60405190151581526020015b60405180910390f35b61018761036b565b6040516101769190611475565b6101a76101a2366004611487565b6103fa565b6040516001600160a01b039091168152602001610176565b6101d26101cd3660046114b9565b610421565b005b6008545b604051908152602001610176565b6101d26101f43660046114e1565b610430565b6101d8610207366004611487565b5f908152600b602052604090206001015490565b6101d261022936600461151b565b6104be565b6101d861023c3660046114b9565b6104e2565b6101d261024f36600461151b565b610545565b6101d26102623660046114e1565b61057d565b6101d8610275366004611487565b610597565b6101a7610288366004611487565b6105ec565b6101d861029b366004611545565b6105f6565b61016a6102ae36600461151b565b61063b565b610187610665565b6101d85f81565b6101d26102d036600461155e565b610674565b6101d26102e3366004611622565b61067f565b6101876102f6366004611487565b610697565b6101d8610309366004611699565b6106a2565b6101d87f9f2df0fed2c77648de5860a4cc508cd0818c85b8b8a1ab4ceeef8d981c8956a681565b6101d261034336600461151b565b6106ff565b61016a6103563660046116f7565b610723565b5f61036582610750565b92915050565b60605f80546103799061171f565b80601f01602080910402602001604051908101604052809291908181526020018280546103a59061171f565b80156103f05780601f106103c7576101008083540402835291602001916103f0565b820191905f5260205f20905b8154815290600101906020018083116103d357829003601f168201915b5050505050905090565b5f61040482610774565b505f828152600460205260409020546001600160a01b0316610365565b61042c8282336107ac565b5050565b6001600160a01b03821661045e57604051633250574960e11b81525f60048201526024015b60405180910390fd5b5f61046a8383336107b9565b9050836001600160a01b0316816001600160a01b0316146104b8576040516364283d7b60e01b81526001600160a01b0380861660048301526024820184905282166044820152606401610455565b50505050565b5f828152600b60205260409020600101546104d8816107c5565b6104b883836107d2565b5f6104ec836105f6565b821061051d5760405163295f44f760e21b81526001600160a01b038416600482015260248101839052604401610455565b506001600160a01b03919091165f908152600660209081526040808320938352929052205490565b6001600160a01b038116331461056e5760405163334bd91960e11b815260040160405180910390fd5b6105788282610863565b505050565b61057883838360405180602001604052805f81525061067f565b5f6105a160085490565b82106105c95760405163295f44f760e21b81525f600482015260248101839052604401610455565b600882815481106105dc576105dc611757565b905f5260205f2001549050919050565b5f61036582610774565b5f6001600160a01b038216610620576040516322718ad960e21b81525f6004820152602401610455565b506001600160a01b03165f9081526003602052604090205490565b5f918252600b602090815260408084206001600160a01b0393909316845291905290205460ff1690565b6060600180546103799061171f565b61042c3383836108ce565b61068a848484610430565b6104b8338585858561096c565b606061036582610a94565b5f7f9f2df0fed2c77648de5860a4cc508cd0818c85b8b8a1ab4ceeef8d981c8956a66106cd816107c5565b600c80545f91826106dd8361177f565b9190505590506106ed8582610b97565b6106f78185610bb0565b949350505050565b5f828152600b6020526040902060010154610719816107c5565b6104b88383610863565b6001600160a01b039182165f90815260056020908152604080832093909416825291909152205460ff1690565b5f6001600160e01b03198216637965db0b60e01b1480610365575061036582610bff565b5f818152600260205260408120546001600160a01b03168061036557604051637e27328960e01b815260048101849052602401610455565b6105788383836001610c23565b5f6106f7848484610d27565b6107cf8133610df2565b50565b5f6107dd838361063b565b61085c575f838152600b602090815260408083206001600160a01b03861684529091529020805460ff191660011790556108143390565b6001600160a01b0316826001600160a01b0316847f2f8788117e7eff1d82e926ec794901d17c78024a50270940304540a733656f0d60405160405180910390a4506001610365565b505f610365565b5f61086e838361063b565b1561085c575f838152600b602090815260408083206001600160a01b0386168085529252808320805460ff1916905551339286917ff6391f5c32d9c69d2a47ea670b442974b53935d1edc7fd64eb21e047a839171b9190a4506001610365565b6001600160a01b03821661090057604051630b61174360e31b81526001600160a01b0383166004820152602401610455565b6001600160a01b038381165f81815260056020908152604080832094871680845294825291829020805460ff191686151590811790915591519182527f17307eab39ab6107e8899845ad3d59bd9653f200f220920489ca2b5937696c31910160405180910390a3505050565b6001600160a01b0383163b15610a8d57604051630a85bd0160e11b81526001600160a01b0384169063150b7a02906109ae908890889087908790600401611797565b6020604051808303815f875af19250505080156109e8575060408051601f3d908101601f191682019092526109e5918101906117d3565b60015b610a4f573d808015610a15576040519150601f19603f3d011682016040523d82523d5f602084013e610a1a565b606091505b5080515f03610a4757604051633250574960e11b81526001600160a01b0385166004820152602401610455565b805160208201fd5b6001600160e01b03198116630a85bd0160e11b14610a8b57604051633250574960e11b81526001600160a01b0385166004820152602401610455565b505b5050505050565b6060610a9f82610774565b505f828152600a602052604081208054610ab89061171f565b80601f0160208091040260200160405190810160405280929190818152602001828054610ae49061171f565b8015610b2f5780601f10610b0657610100808354040283529160200191610b2f565b820191905f5260205f20905b815481529060010190602001808311610b1257829003601f168201915b505050505090505f610b4b60408051602081019091525f815290565b905080515f03610b5c575092915050565b815115610b8e578082604051602001610b76929190611805565b60405160208183030381529060405292505050919050565b6106f784610e2b565b61042c828260405180602001604052805f815250610e9c565b5f828152600a60205260409020610bc7828261185d565b506040518281527ff8e1a15aba9398e019f0b49df1a4fde98ee17ae345cb5f6b5e2c27f5033e8ce79060200160405180910390a15050565b5f6001600160e01b03198216632483248360e11b1480610365575061036582610eb3565b8080610c3757506001600160a01b03821615155b15610cf8575f610c4684610774565b90506001600160a01b03831615801590610c725750826001600160a01b0316816001600160a01b031614155b8015610c855750610c838184610723565b155b15610cae5760405163a9fbf51f60e01b81526001600160a01b0384166004820152602401610455565b8115610cf65783856001600160a01b0316826001600160a01b03167f8c5be1e5ebec7d5bd14f71427d1e84f3dd0314c0f7b2291e5b200ac8c7c3b92560405160405180910390a45b505b50505f90815260046020526040902080546001600160a01b0319166001600160a01b0392909216919091179055565b5f5f610d34858585610ed7565b90506001600160a01b038116610d9057610d8b84600880545f838152600960205260408120829055600182018355919091527ff3f7a9fe364faab93b216da50a3214154f22a0a2b415b23a84c8169e8b636ee30155565b610db3565b846001600160a01b0316816001600160a01b031614610db357610db38185610fc9565b6001600160a01b038516610dcf57610dca84611046565b6106f7565b846001600160a01b0316816001600160a01b0316146106f7576106f785856110ed565b610dfc828261063b565b61042c5760405163e2517d3f60e01b81526001600160a01b038216600482015260248101839052604401610455565b6060610e3682610774565b505f610e4c60408051602081019091525f815290565b90505f815111610e6a5760405180602001604052805f815250610e95565b80610e748461113b565b604051602001610e85929190611805565b6040516020818303038152906040525b9392505050565b610ea683836111cb565b610578335f85858561096c565b5f6001600160e01b0319821663780e9d6360e01b148061036557506103658261122c565b5f828152600260205260408120546001600160a01b0390811690831615610f0357610f0381848661127b565b6001600160a01b03811615610f3d57610f1e5f855f5f610c23565b6001600160a01b0381165f90815260036020526040902080545f190190555b6001600160a01b03851615610f6b576001600160a01b0385165f908152600360205260409020805460010190555b5f8481526002602052604080822080546001600160a01b0319166001600160a01b0389811691821790925591518793918516917fddf252ad1be2c89b69c2b068fc378daa952ba7f163c4a11628f55a4df523b3ef91a4949350505050565b5f610fd3836105f6565b5f838152600760209081526040808320546001600160a01b0388168452600690925290912091925090818314611028575f83815260208281526040808320548584528184208190558352600790915290208290555b5f938452600760209081526040808620869055938552525081205550565b6008545f9061105790600190611918565b5f838152600960205260408120546008805493945090928490811061107e5761107e611757565b905f5260205f2001549050806008838154811061109d5761109d611757565b5f9182526020808320909101929092558281526009909152604080822084905585825281205560088054806110d4576110d461192b565b600190038181905f5260205f20015f9055905550505050565b5f60016110f9846105f6565b6111039190611918565b6001600160a01b039093165f908152600660209081526040808320868452825280832085905593825260079052919091209190915550565b60605f611147836112df565b60010190505f8167ffffffffffffffff81111561116657611166611597565b6040519080825280601f01601f191660200182016040528015611190576020820181803683370190505b5090508181016020015b5f19016f181899199a1a9b1b9c1cb0b131b232b360811b600a86061a8153600a850494508461119a57509392505050565b6001600160a01b0382166111f457604051633250574960e11b81525f6004820152602401610455565b5f61120083835f6107b9565b90506001600160a01b03811615610578576040516339e3563760e11b81525f6004820152602401610455565b5f6001600160e01b031982166380ac58cd60e01b148061125c57506001600160e01b03198216635b5e139f60e01b145b8061036557506301ffc9a760e01b6001600160e01b0319831614610365565b6112868383836113b6565b610578576001600160a01b0383166112b457604051637e27328960e01b815260048101829052602401610455565b60405163177e802f60e01b81526001600160a01b038316600482015260248101829052604401610455565b5f8072184f03e93ff9f4daa797ed6e38ed64bf6a1f0160401b831061131d5772184f03e93ff9f4daa797ed6e38ed64bf6a1f0160401b830492506040015b6d04ee2d6d415b85acef81000000008310611349576d04ee2d6d415b85acef8100000000830492506020015b662386f26fc10000831061136757662386f26fc10000830492506010015b6305f5e100831061137f576305f5e100830492506008015b612710831061139357612710830492506004015b606483106113a5576064830492506002015b600a83106103655760010192915050565b5f6001600160a01b038316158015906106f75750826001600160a01b0316846001600160a01b031614806113ef57506113ef8484610723565b806106f75750505f908152600460205260409020546001600160a01b03908116911614919050565b6001600160e01b0319811681146107cf575f5ffd5b5f6020828403121561143c575f5ffd5b8135610e9581611417565b5f81518084528060208401602086015e5f602082860101526020601f19601f83011685010191505092915050565b602081525f610e956020830184611447565b5f60208284031215611497575f5ffd5b5035919050565b80356001600160a01b03811681146114b4575f5ffd5b919050565b5f5f604083850312156114ca575f5ffd5b6114d38361149e565b946020939093013593505050565b5f5f5f606084860312156114f3575f5ffd5b6114fc8461149e565b925061150a6020850161149e565b929592945050506040919091013590565b5f5f6040838503121561152c575f5ffd5b8235915061153c6020840161149e565b90509250929050565b5f60208284031215611555575f5ffd5b610e958261149e565b5f5f6040838503121561156f575f5ffd5b6115788361149e565b91506020830135801515811461158c575f5ffd5b809150509250929050565b634e487b7160e01b5f52604160045260245ffd5b5f5f67ffffffffffffffff8411156115c5576115c5611597565b50604051601f19601f85018116603f0116810181811067ffffffffffffffff821117156115f4576115f4611597565b60405283815290508082840185101561160b575f5ffd5b838360208301375f60208583010152509392505050565b5f5f5f5f60808587031215611635575f5ffd5b61163e8561149e565b935061164c6020860161149e565b925060408501359150606085013567ffffffffffffffff81111561166e575f5ffd5b8501601f8101871361167e575f5ffd5b61168d878235602084016115ab565b91505092959194509250565b5f5f604083850312156116aa575f5ffd5b6116b38361149e565b9150602083013567ffffffffffffffff8111156116ce575f5ffd5b8301601f810185136116de575f5ffd5b6116ed858235602084016115ab565b9150509250929050565b5f5f60408385031215611708575f5ffd5b6117118361149e565b915061153c6020840161149e565b600181811c9082168061173357607f821691505b60208210810361175157634e487b7160e01b5f52602260045260245ffd5b50919050565b634e487b7160e01b5f52603260045260245ffd5b634e487b7160e01b5f52601160045260245ffd5b5f600182016117905761179061176b565b5060010190565b6001600160a01b03858116825284166020820152604081018390526080606082018190525f906117c990830184611447565b9695505050505050565b5f602082840312156117e3575f5ffd5b8151610e9581611417565b5f81518060208401855e5f93019283525090919050565b5f6106f761181383866117ee565b846117ee565b601f82111561057857805f5260205f20601f840160051c8101602085101561183e5750805b601f840160051c820191505b81811015610a8d575f815560010161184a565b815167ffffffffffffffff81111561187757611877611597565b61188b81611885845461171f565b84611819565b6020601f8211600181146118bd575f83156118a65750848201515b5f19600385901b1c1916600184901b178455610a8d565b5f84815260208120601f198516915b828110156118ec57878501518255602094850194600190920191016118cc565b508482101561190957868401515f19600387901b60f8161c191681555b50505050600190811b01905550565b818103818111156103655761036561176b565b634e487b7160e01b5f52603160045260245ffdfea26469706673582212208390853e4ee6cd5d0db77e7e8d76f853071b276d9cea3d2b33b00d599fc2232564736f6c634300081e0033","linkReferences":{}},"methodIdentifiers":{"DEFAULT_ADMIN_ROLE()":"a217fddf","MINTER_ROLE()":"d5391393","approve(address,uint256)":"095ea7b3","balanceOf(address)":"70a08231","getApproved(uint256)":"081812fc","getRoleAdmin(bytes32)":"248a9ca3","grantRole(bytes32,address)":"2f2ff15d","hasRole(bytes32,address)":"91d14854","isApprovedForAll(address,address)":"e985e9c5","name()":"06fdde03","ownerOf(uint256)":"6352211e","renounceRole(bytes32,address)":"36568abe","revokeRole(bytes32,address)":"d547741f","safeMint(address,string)":"d204c45e","safeTransferFrom(address,address,uint256)":"42842e0e","safeTransferFrom(address,address,uint256,bytes)":"b88d4fde","setApprovalForAll(address,bool)":"a22cb465","supportsInterface(bytes4)":"01ffc9a7","symbol()":"95d89b41","tokenByIndex(uint256)":"4f6ccce7","tokenOfOwnerByIndex(address,uint256)":"2f745c59","tokenURI(uint256)":"c87b56dd","totalSupply()":"18160ddd","transferFrom(address,address,uint256)":"23b872dd"},"id":23}