{
  "abi": [
    {
      "type": "constructor",
      "inputs": [
        {
          "name": "defaultAdmin",
          "type": "address",
          "internalType": "address"
        },
        {
          "name": "minter",
          "type": "address",
          "internalType": "address"
        },
        {
          "name": "name",
          "type": "string",
          "internalType": "string"
        },
        {
          "name": "symbol",
          "type": "string",
          "internalType": "string"
        }
      ],
      "stateMutability": "nonpayable"
    },
    {
      "type": "function",
      "name": "DEFAULT_ADMIN_ROLE",
      "inputs": [],
      "outputs": [
        {
          "name": "",
          "type": "bytes32",
          "internalType": "bytes32"
        }
      ],
      "stateMutability": "view"
    },
    {
      "type": "function",
      "name": "MINTER_ROLE",
      "inputs": [],
      "outputs": [
        {
          "name": "",
          "type": "bytes32",
          "internalType": "bytes32"
        }
      ],
      "stateMutability": "view"
    },
    {
      "type": "function",
      "name": "approve",
      "inputs": [
        {
          "name": "to",
          "type": "address",
          "internalType": "address"
        },
        {
          "name": "tokenId",
          "type": "uint256",
          "internalType": "uint256"
        }
      ],
      "outputs": [],
      "stateMutability": "nonpayable"
    },
    {
      "type": "function",
      "name": "balanceOf",
      "inputs": [
        {
          "name": "owner",
          "type": "address",
          "internalType": "address"
        }
      ],
      "outputs": [
        {
          "name": "",
          "type": "uint256",
          "internalType": "uint256"
        }
      ],
      "stateMutability": "view"
    },
    {
      "type": "function",
      "name": "burn",
      "inputs": [
        {
          "name": "tokenId",
          "type": "uint256",
          "internalType": "uint256"
        }
      ],
      "outputs": [],
      "stateMutability": "nonpayable"
    },
    {
      "type": "function",
      "name": "getApproved",
      "inputs": [
        {
          "name": "tokenId",
          "type": "uint256",
          "internalType": "uint256"
        }
      ],
      "outputs": [
        {
          "name": "",
          "type": "address",
          "internalType": "address"
        }
      ],
      "stateMutability": "view"
    },
    {
      "type": "function",
      "name": "getRoleAdmin",
      "inputs": [
        {
          "name": "role",
          "type": "bytes32",
          "internalType": "bytes32"
        }
      ],
      "outputs": [
        {
          "name": "",
          "type": "bytes32",
          "internalType": "bytes32"
        }
      ],
      "stateMutability": "view"
    },
    {
      "type": "function",
      "name": "grantRole",
      "inputs": [
        {
          "name": "role",
          "type": "bytes32",
          "internalType": "bytes32"
        },
        {
          "name": "account",
          "type": "address",
          "internalType": "address"
        }
      ],
      "outputs": [],
      "stateMutability": "nonpayable"
    },
    {
      "type": "function",
      "name": "hasRole",
      "inputs": [
        {
          "name": "role",
          "type": "bytes32",
          "internalType": "bytes32"
        },
        {
          "name": "account",
          "type": "address",
          "internalType": "address"
        }
      ],
      "outputs": [
        {
          "name": "",
          "type": "bool",
          "internalType": "bool"
        }
      ],
      "stateMutability": "view"
    },
    {
      "type": "function",
      "name": "isApprovedForAll",
      "inputs": [
        {
          "name": "owner",
          "type": "address",
          "internalType": "address"
        },
        {
          "name": "operator",
          "type": "address",
          "internalType": "address"
        }
      ],
      "outputs": [
        {
          "name": "",
          "type": "bool",
          "internalType": "bool"
        }
      ],
      "stateMutability": "view"
    },
    {
      "type": "function",
      "name": "name",
      "inputs": [],
      "outputs": [
        {
          "name": "",
          "type": "string",
          "internalType": "string"
        }
      ],
      "stateMutability": "view"
    },
    {
      "type": "function",
      "name": "ownerOf",
      "inputs": [
        {
          "name": "tokenId",
          "type": "uint256",
          "internalType": "uint256"
        }
      ],
      "outputs": [
        {
          "name": "",
          "type": "address",
          "internalType": "address"
        }
      ],
      "stateMutability": "view"
    },
    {
      "type": "function",
      "name": "renounceRole",
      "inputs": [
        {
          "name": "role",
          "type": "bytes32",
          "internalType": "bytes32"
        },
        {
          "name": "callerConfirmation",
          "type": "address",
          "internalType": "address"
        }
      ],
      "outputs": [],
      "stateMutability": "nonpayable"
    },
    {
      "type": "function",
      "name": "revokeRole",
      "inputs": [
        {
          "name": "role",
          "type": "bytes32",
          "internalType": "bytes32"
        },
        {
          "name": "account",
          "type": "address",
          "internalType": "address"
        }
      ],
      "outputs": [],
      "stateMutability": "nonpayable"
    },
    {
      "type": "function",
      "name": "safeMint",
      "inputs": [
        {
          "name": "to",
          "type": "address",
          "internalType": "address"
        },
        {
          "name": "tokenId",
          "type": "uint256",
          "internalType": "uint256"
        }
      ],
      "outputs": [],
      "stateMutability": "nonpayable"
    },
    {
      "type": "function",
      "name": "safeTransferFrom",
      "inputs": [
        {
          "name": "from",
          "type": "address",
          "internalType": "address"
        },
        {
          "name": "to",
          "type": "address",
          "internalType": "address"
        },
        {
          "name": "tokenId",
          "type": "uint256",
          "internalType": "uint256"
        }
      ],
      "outputs": [],
      "stateMutability": "nonpayable"
    },
    {
      "type": "function",
      "name": "safeTransferFrom",
      "inputs": [
        {
          "name": "from",
          "type": "address",
          "internalType": "address"
        },
        {
          "name": "to",
          "type": "address",
          "internalType": "address"
        },
        {
          "name": "tokenId",
          "type": "uint256",
          "internalType": "uint256"
        },
        {
          "name": "data",
          "type": "bytes",
          "internalType": "bytes"
        }
      ],
      "outputs": [],
      "stateMutability": "nonpayable"
    },
    {
      "type": "function",
      "name": "setApprovalForAll",
      "inputs": [
        {
          "name": "operator",
          "type": "address",
          "internalType": "address"
        },
        {
          "name": "approved",
          "type": "bool",
          "internalType": "bool"
        }
      ],
      "outputs": [],
      "stateMutability": "nonpayable"
    },
    {
      "type": "function",
      "name": "supportsInterface",
      "inputs": [
        {
          "name": "interfaceId",
          "type": "bytes4",
          "internalType": "bytes4"
        }
      ],
      "outputs": [
        {
          "name": "",
          "type": "bool",
          "internalType": "bool"
        }
      ],
      "stateMutability": "view"
    },
    {
      "type": "function",
      "name": "symbol",
      "inputs": [],
      "outputs": [
        {
          "name": "",
          "type": "string",
          "internalType": "string"
        }
      ],
      "stateMutability": "view"
    },
    {
      "type": "function",
      "name": "tokenByIndex",
      "inputs": [
        {
          "name": "index",
          "type": "uint256",
          "internalType": "uint256"
        }
      ],
      "outputs": [
        {
          "name": "",
          "type": "uint256",
          "internalType": "uint256"
        }
      ],
      "stateMutability": "view"
    },
    {
      "type": "function",
      "name": "tokenOfOwnerByIndex",
      "inputs": [
        {
          "name": "owner",
          "type": "address",
          "internalType": "address"
        },
        {
          "name": "index",
          "type": "uint256",
          "internalType": "uint256"
        }
      ],
      "outputs": [
        {
          "name": "",
          "type": "uint256",
          "internalType": "uint256"
        }
      ],
      "stateMutability": "view"
    },
    {
      "type": "function",
      "name": "tokenURI",
      "inputs": [
        {
          "name": "tokenId",
          "type": "uint256",
          "internalType": "uint256"
        }
      ],
      "outputs": [
        {
          "name": "",
          "type": "string",
          "internalType": "string"
        }
      ],
      "stateMutability": "view"
    },
    {
      "type": "function",
      "name": "totalSupply",
      "inputs": [],
      "outputs": [
        {
          "name": "",
          "type": "uint256",
          "internalType": "uint256"
        }
      ],
      "stateMutability": "view"
    },
    {
      "type": "function",
      "name": "transferFrom",
      "inputs": [
        {
          "name": "from",
          "type": "address",
          "internalType": "address"
        },
        {
          "name": "to",
          "type": "address",
          "internalType": "address"
        },
        {
          "name": "tokenId",
          "type": "uint256",
          "internalType": "uint256"
        }
      ],
      "outputs": [],
      "stateMutability": "nonpayable"
    },
    {
      "type": "event",
      "name": "Approval",
      "inputs": [
        {
          "name": "owner",
          "type": "address",
          "indexed": true,
          "internalType": "address"
        },
        {
          "name": "approved",
          "type": "address",
          "indexed": true,
          "internalType": "address"
        },
        {
          "name": "tokenId",
          "type": "uint256",
          "indexed": true,
          "internalType": "uint256"
        }
      ],
      "anonymous": false
    },
    {
      "type": "event",
      "name": "ApprovalForAll",
      "inputs": [
        {
          "name": "owner",
          "type": "address",
          "indexed": true,
          "internalType": "address"
        },
        {
          "name": "operator",
          "type": "address",
          "indexed": true,
          "internalType": "address"
        },
        {
          "name": "approved",
          "type": "bool",
          "indexed": false,
          "internalType": "bool"
        }
      ],
      "anonymous": false
    },
    {
      "type": "event",
      "name": "RoleAdminChanged",
      "inputs": [
        {
          "name": "role",
          "type": "bytes32",
          "indexed": true,
          "internalType": "bytes32"
        },
        {
          "name": "previousAdminRole",
          "type": "bytes32",
          "indexed": true,
          "internalType": "bytes32"
        },
        {
          "name": "newAdminRole",
          "type": "bytes32",
          "indexed": true,
          "internalType": "bytes32"
        }
      ],
      "anonymous": false
    },
    {
      "type": "event",
      "name": "RoleGranted",
      "inputs": [
        {
          "name": "role",
          "type": "bytes32",
          "indexed": true,
          "internalType": "bytes32"
        },
        {
          "name": "account",
          "type": "address",
          "indexed": true,
          "internalType": "address"
        },
        {
          "name": "sender",
          "type": "address",
          "indexed": true,
          "internalType": "address"
        }
      ],
      "anonymous": false
    },
    {
      "type": "event",
      "name": "RoleRevoked",
      "inputs": [
        {
          "name": "role",
          "type": "bytes32",
          "indexed": true,
          "internalType": "bytes32"
        },
        {
          "name": "account",
          "type": "address",
          "indexed": true,
          "internalType": "address"
        },
        {
          "name": "sender",
          "type": "address",
          "indexed": true,
          "internalType": "address"
        }
      ],
      "anonymous": false
    },
    {
      "type": "event",
      "name": "Transfer",
      "inputs": [
        {
          "name": "from",
          "type": "address",
          "indexed": true,
          "internalType": "address"
        },
        {
          "name": "to",
          "type": "address",
          "indexed": true,
          "internalType": "address"
        },
        {
          "name": "tokenId",
          "type": "uint256",
          "indexed": true,
          "internalType": "uint256"
        }
      ],
      "anonymous": false
    },
    {
      "type": "error",
      "name": "AccessControlBadConfirmation",
      "inputs": []
    },
    {
      "type": "error",
      "name": "AccessControlUnauthorizedAccount",
      "inputs": [
        {
          "name": "account",
          "type": "address",
          "internalType": "address"
        },
        {
          "name": "neededRole",
          "type": "bytes32",
          "internalType": "bytes32"
        }
      ]
    },
    {
      "type": "error",
      "name": "ERC721EnumerableForbiddenBatchMint",
      "inputs": []
    },
    {
      "type": "error",
      "name": "ERC721IncorrectOwner",
      "inputs": [
        {
          "name": "sender",
          "type": "address",
          "internalType": "address"
        },
        {
          "name": "tokenId",
          "type": "uint256",
          "internalType": "uint256"
        },
        {
          "name": "owner",
          "type": "address",
          "internalType": "address"
        }
      ]
    },
    {
      "type": "error",
      "name": "ERC721InsufficientApproval",
      "inputs": [
        {
          "name": "operator",
          "type": "address",
          "internalType": "address"
        },
        {
          "name": "tokenId",
          "type": "uint256",
          "internalType": "uint256"
        }
      ]
    },
    {
      "type": "error",
      "name": "ERC721InvalidApprover",
      "inputs": [
        {
          "name": "approver",
          "type": "address",
          "internalType": "address"
        }
      ]
    },
    {
      "type": "error",
      "name": "ERC721InvalidOperator",
      "inputs": [
        {
          "name": "operator",
          "type": "address",
          "internalType": "address"
        }
      ]
    },
    {
      "type": "error",
      "name": "ERC721InvalidOwner",
      "inputs": [
        {
          "name": "owner",
          "type": "address",
          "internalType": "address"
        }
      ]
    },
    {
      "type": "error",
      "name": "ERC721InvalidReceiver",
      "inputs": [
        {
          "name": "receiver",
          "type": "address",
          "internalType": "address"
        }
      ]
    },
    {
      "type": "error",
      "name": "ERC721InvalidSender",
      "inputs": [
        {
          "name": "sender",
          "type": "address",
          "internalType": "address"
        }
      ]
    },
    {
      "type": "error",
      "name": "ERC721NonexistentToken",
      "inputs": [
        {
          "name": "tokenId",
          "type": "uint256",
          "internalType": "uint256"
        }
      ]
    },
    {
      "type": "error",
      "name": "ERC721OutOfBoundsIndex",
      "inputs": [
        {
          "name": "owner",
          "type": "address",
          "internalType": "address"
        },
        {
          "name": "index",
          "type": "uint256",
          "internalType": "uint256"
        }
      ]
    }
  ],
  "bytecode": {
    "object": "0x608060405234801561000f575f5ffd5b50604051611a3f380380611a3f83398101604081905261002e916101f1565b81815f61003b83826102fb565b50600161004882826102fb565b5061005791505f90508561008c565b506100827f9f2df0fed2c77648de5860a4cc508cd0818c85b8b8a1ab4ceeef8d981c8956a68461008c565b50505050506103b5565b5f828152600a602090815260408083206001600160a01b038516845290915281205460ff16610130575f838152600a602090815260408083206001600160a01b03861684529091529020805460ff191660011790556100e83390565b6001600160a01b0316826001600160a01b0316847f2f8788117e7eff1d82e926ec794901d17c78024a50270940304540a733656f0d60405160405180910390a4506001610133565b505f5b92915050565b80516001600160a01b038116811461014f575f5ffd5b919050565b634e487b7160e01b5f52604160045260245ffd5b5f82601f830112610177575f5ffd5b81516001600160401b0381111561019057610190610154565b604051601f8201601f19908116603f011681016001600160401b03811182821017156101be576101be610154565b6040528181528382016020018510156101d5575f5ffd5b8160208501602083015e5f918101602001919091529392505050565b5f5f5f5f60808587031215610204575f5ffd5b61020d85610139565b935061021b60208601610139565b60408601519093506001600160401b03811115610236575f5ffd5b61024287828801610168565b606087015190935090506001600160401b0381111561025f575f5ffd5b61026b87828801610168565b91505092959194509250565b600181811c9082168061028b57607f821691505b6020821081036102a957634e487b7160e01b5f52602260045260245ffd5b50919050565b601f8211156102f657805f5260205f20601f840160051c810160208510156102d45750805b601f840160051c820191505b818110156102f3575f81556001016102e0565b50505b505050565b81516001600160401b0381111561031457610314610154565b610328816103228454610277565b846102af565b6020601f82116001811461035a575f83156103435750848201515b5f19600385901b1c1916600184901b1784556102f3565b5f84815260208120601f198516915b828110156103895787850151825560209485019460019092019101610369565b50848210156103a657868401515f19600387901b60f8161c191681555b50505050600190811b01905550565b61167d806103c25f395ff3fe608060405234801561000f575f5ffd5b506004361061016d575f3560e01c80634f6ccce7116100d9578063a217fddf11610093578063c87b56dd1161006e578063c87b56dd14610328578063d53913931461033b578063d547741f14610362578063e985e9c514610375575f5ffd5b8063a217fddf146102fb578063a22cb46514610302578063b88d4fde14610315575f5ffd5b80634f6ccce7146102945780636352211e146102a757806370a08231146102ba57806391d14854146102cd57806395d89b41146102e0578063a1448194146102e8575f5ffd5b8063248a9ca31161012a578063248a9ca3146102135780632f2ff15d146102355780632f745c591461024857806336568abe1461025b57806342842e0e1461026e57806342966c6814610281575f5ffd5b806301ffc9a71461017157806306fdde0314610199578063081812fc146101ae578063095ea7b3146101d957806318160ddd146101ee57806323b872dd14610200575b5f5ffd5b61018461017f3660046112c2565b610388565b60405190151581526020015b60405180910390f35b6101a1610398565b604051610190919061130b565b6101c16101bc36600461131d565b610427565b6040516001600160a01b039091168152602001610190565b6101ec6101e736600461134f565b61044e565b005b6008545b604051908152602001610190565b6101ec61020e366004611377565b61045d565b6101f261022136600461131d565b5f908152600a602052604090206001015490565b6101ec6102433660046113b1565b6104eb565b6101f261025636600461134f565b61050f565b6101ec6102693660046113b1565b610572565b6101ec61027c366004611377565b6105aa565b6101ec61028f36600461131d565b6105c4565b6101f26102a236600461131d565b6105cf565b6101c16102b536600461131d565b610624565b6101f26102c83660046113db565b61062e565b6101846102db3660046113b1565b610673565b6101a161069d565b6101ec6102f636600461134f565b6106ac565b6101f25f81565b6101ec6103103660046113f4565b6106e0565b6101ec610323366004611441565b6106eb565b6101a161033636600461131d565b610703565b6101f27f9f2df0fed2c77648de5860a4cc508cd0818c85b8b8a1ab4ceeef8d981c8956a681565b6101ec6103703660046113b1565b610774565b61018461038336600461151e565b610798565b5f610392826107c5565b92915050565b60605f80546103a690611546565b80601f01602080910402602001604051908101604052809291908181526020018280546103d290611546565b801561041d5780601f106103f45761010080835404028352916020019161041d565b820191905f5260205f20905b81548152906001019060200180831161040057829003601f168201915b5050505050905090565b5f610431826107e9565b505f828152600460205260409020546001600160a01b0316610392565b610459828233610821565b5050565b6001600160a01b03821661048b57604051633250574960e11b81525f60048201526024015b60405180910390fd5b5f61049783833361082e565b9050836001600160a01b0316816001600160a01b0316146104e5576040516364283d7b60e01b81526001600160a01b0380861660048301526024820184905282166044820152606401610482565b50505050565b5f828152600a602052604090206001015461050581610842565b6104e5838361084f565b5f6105198361062e565b821061054a5760405163295f44f760e21b81526001600160a01b038416600482015260248101839052604401610482565b506001600160a01b03919091165f908152600660209081526040808320938352929052205490565b6001600160a01b038116331461059b5760405163334bd91960e11b815260040160405180910390fd5b6105a582826108e0565b505050565b6105a583838360405180602001604052805f8152506106eb565b6104595f823361082e565b5f6105d960085490565b82106106015760405163295f44f760e21b81525f600482015260248101839052604401610482565b600882815481106106145761061461157e565b905f5260205f2001549050919050565b5f610392826107e9565b5f6001600160a01b038216610658576040516322718ad960e21b81525f6004820152602401610482565b506001600160a01b03165f9081526003602052604090205490565b5f918252600a602090815260408084206001600160a01b0393909316845291905290205460ff1690565b6060600180546103a690611546565b7f9f2df0fed2c77648de5860a4cc508cd0818c85b8b8a1ab4ceeef8d981c8956a66106d681610842565b6105a5838361094b565b610459338383610964565b6106f684848461045d565b6104e53385858585610a02565b606061070e826107e9565b505f61072460408051602081019091525f815290565b90505f8151116107425760405180602001604052805f81525061076d565b8061074c84610b2a565b60405160200161075d9291906115a9565b6040516020818303038152906040525b9392505050565b5f828152600a602052604090206001015461078e81610842565b6104e583836108e0565b6001600160a01b039182165f90815260056020908152604080832093909416825291909152205460ff1690565b5f6001600160e01b03198216637965db0b60e01b1480610392575061039282610bba565b5f818152600260205260408120546001600160a01b03168061039257604051637e27328960e01b815260048101849052602401610482565b6105a58383836001610bde565b5f61083a848484610ce2565b949350505050565b61084c8133610dad565b50565b5f61085a8383610673565b6108d9575f838152600a602090815260408083206001600160a01b03861684529091529020805460ff191660011790556108913390565b6001600160a01b0316826001600160a01b0316847f2f8788117e7eff1d82e926ec794901d17c78024a50270940304540a733656f0d60405160405180910390a4506001610392565b505f610392565b5f6108eb8383610673565b156108d9575f838152600a602090815260408083206001600160a01b0386168085529252808320805460ff1916905551339286917ff6391f5c32d9c69d2a47ea670b442974b53935d1edc7fd64eb21e047a839171b9190a4506001610392565b610459828260405180602001604052805f815250610de6565b6001600160a01b03821661099657604051630b61174360e31b81526001600160a01b0383166004820152602401610482565b6001600160a01b038381165f81815260056020908152604080832094871680845294825291829020805460ff191686151590811790915591519182527f17307eab39ab6107e8899845ad3d59bd9653f200f220920489ca2b5937696c31910160405180910390a3505050565b6001600160a01b0383163b15610b2357604051630a85bd0160e11b81526001600160a01b0384169063150b7a0290610a449088908890879087906004016115bd565b6020604051808303815f875af1925050508015610a7e575060408051601f3d908101601f19168201909252610a7b918101906115f9565b60015b610ae5573d808015610aab576040519150601f19603f3d011682016040523d82523d5f602084013e610ab0565b606091505b5080515f03610add57604051633250574960e11b81526001600160a01b0385166004820152602401610482565b805160208201fd5b6001600160e01b03198116630a85bd0160e11b14610b2157604051633250574960e11b81526001600160a01b0385166004820152602401610482565b505b5050505050565b60605f610b3683610dfd565b60010190505f8167ffffffffffffffff811115610b5557610b5561142d565b6040519080825280601f01601f191660200182016040528015610b7f576020820181803683370190505b5090508181016020015b5f19016f181899199a1a9b1b9c1cb0b131b232b360811b600a86061a8153600a8504945084610b8957509392505050565b5f6001600160e01b0319821663780e9d6360e01b1480610392575061039282610ed4565b8080610bf257506001600160a01b03821615155b15610cb3575f610c01846107e9565b90506001600160a01b03831615801590610c2d5750826001600160a01b0316816001600160a01b031614155b8015610c405750610c3e8184610798565b155b15610c695760405163a9fbf51f60e01b81526001600160a01b0384166004820152602401610482565b8115610cb15783856001600160a01b0316826001600160a01b03167f8c5be1e5ebec7d5bd14f71427d1e84f3dd0314c0f7b2291e5b200ac8c7c3b92560405160405180910390a45b505b50505f90815260046020526040902080546001600160a01b0319166001600160a01b0392909216919091179055565b5f5f610cef858585610f23565b90506001600160a01b038116610d4b57610d4684600880545f838152600960205260408120829055600182018355919091527ff3f7a9fe364faab93b216da50a3214154f22a0a2b415b23a84c8169e8b636ee30155565b610d6e565b846001600160a01b0316816001600160a01b031614610d6e57610d6e8185611015565b6001600160a01b038516610d8a57610d8584611092565b61083a565b846001600160a01b0316816001600160a01b03161461083a5761083a8585611139565b610db78282610673565b6104595760405163e2517d3f60e01b81526001600160a01b038216600482015260248101839052604401610482565b610df08383611187565b6105a5335f858585610a02565b5f8072184f03e93ff9f4daa797ed6e38ed64bf6a1f0160401b8310610e3b5772184f03e93ff9f4daa797ed6e38ed64bf6a1f0160401b830492506040015b6d04ee2d6d415b85acef81000000008310610e67576d04ee2d6d415b85acef8100000000830492506020015b662386f26fc100008310610e8557662386f26fc10000830492506010015b6305f5e1008310610e9d576305f5e100830492506008015b6127108310610eb157612710830492506004015b60648310610ec3576064830492506002015b600a83106103925760010192915050565b5f6001600160e01b031982166380ac58cd60e01b1480610f0457506001600160e01b03198216635b5e139f60e01b145b8061039257506301ffc9a760e01b6001600160e01b0319831614610392565b5f828152600260205260408120546001600160a01b0390811690831615610f4f57610f4f8184866111e8565b6001600160a01b03811615610f8957610f6a5f855f5f610bde565b6001600160a01b0381165f90815260036020526040902080545f190190555b6001600160a01b03851615610fb7576001600160a01b0385165f908152600360205260409020805460010190555b5f8481526002602052604080822080546001600160a01b0319166001600160a01b0389811691821790925591518793918516917fddf252ad1be2c89b69c2b068fc378daa952ba7f163c4a11628f55a4df523b3ef91a4949350505050565b5f61101f8361062e565b5f838152600760209081526040808320546001600160a01b0388168452600690925290912091925090818314611074575f83815260208281526040808320548584528184208190558352600790915290208290555b5f938452600760209081526040808620869055938552525081205550565b6008545f906110a390600190611614565b5f83815260096020526040812054600880549394509092849081106110ca576110ca61157e565b905f5260205f200154905080600883815481106110e9576110e961157e565b5f91825260208083209091019290925582815260099091526040808220849055858252812055600880548061112057611120611633565b600190038181905f5260205f20015f9055905550505050565b5f60016111458461062e565b61114f9190611614565b6001600160a01b039093165f908152600660209081526040808320868452825280832085905593825260079052919091209190915550565b6001600160a01b0382166111b057604051633250574960e11b81525f6004820152602401610482565b5f6111bc83835f61082e565b90506001600160a01b038116156105a5576040516339e3563760e11b81525f6004820152602401610482565b6111f383838361124c565b6105a5576001600160a01b03831661122157604051637e27328960e01b815260048101829052602401610482565b60405163177e802f60e01b81526001600160a01b038316600482015260248101829052604401610482565b5f6001600160a01b0383161580159061083a5750826001600160a01b0316846001600160a01b0316148061128557506112858484610798565b8061083a5750505f908152600460205260409020546001600160a01b03908116911614919050565b6001600160e01b03198116811461084c575f5ffd5b5f602082840312156112d2575f5ffd5b813561076d816112ad565b5f81518084528060208401602086015e5f602082860101526020601f19601f83011685010191505092915050565b602081525f61076d60208301846112dd565b5f6020828403121561132d575f5ffd5b5035919050565b80356001600160a01b038116811461134a575f5ffd5b919050565b5f5f60408385031215611360575f5ffd5b61136983611334565b946020939093013593505050565b5f5f5f60608486031215611389575f5ffd5b61139284611334565b92506113a060208501611334565b929592945050506040919091013590565b5f5f604083850312156113c2575f5ffd5b823591506113d260208401611334565b90509250929050565b5f602082840312156113eb575f5ffd5b61076d82611334565b5f5f60408385031215611405575f5ffd5b61140e83611334565b915060208301358015158114611422575f5ffd5b809150509250929050565b634e487b7160e01b5f52604160045260245ffd5b5f5f5f5f60808587031215611454575f5ffd5b61145d85611334565b935061146b60208601611334565b925060408501359150606085013567ffffffffffffffff81111561148d575f5ffd5b8501601f8101871361149d575f5ffd5b803567ffffffffffffffff8111156114b7576114b761142d565b604051601f8201601f19908116603f0116810167ffffffffffffffff811182821017156114e6576114e661142d565b6040528181528282016020018910156114fd575f5ffd5b816020840160208301375f6020838301015280935050505092959194509250565b5f5f6040838503121561152f575f5ffd5b61153883611334565b91506113d260208401611334565b600181811c9082168061155a57607f821691505b60208210810361157857634e487b7160e01b5f52602260045260245ffd5b50919050565b634e487b7160e01b5f52603260045260245ffd5b5f81518060208401855e5f93019283525090919050565b5f61083a6115b78386611592565b84611592565b6001600160a01b03858116825284166020820152604081018390526080606082018190525f906115ef908301846112dd565b9695505050505050565b5f60208284031215611609575f5ffd5b815161076d816112ad565b8181038181111561039257634e487b7160e01b5f52601160045260245ffd5b634e487b7160e01b5f52603160045260245ffdfea26469706673582212207efdb9ab34c0adb90ea05a48e426c6cd23f3fde1d4148f1253b93f60269d78e864736f6c634300081e0033",
    "linkReferences": {}
  },
  "methodIdentifiers": {
    "DEFAULT_ADMIN_ROLE()": "a217fddf",
    "MINTER_ROLE()": "d5391393",
    "approve(address,uint256)": "095ea7b3",
    "balanceOf(address)": "70a08231",
    "burn(uint256)": "42966c68",
    "getApproved(uint256)": "081812fc",
    "getRoleAdmin(bytes32)": "248a9ca3",
    "grantRole(bytes32,address)": "2f2ff15d",
    "hasRole(bytes32,address)": "91d14854",
    "isApprovedForAll(address,address)": "e985e9c5",
    "name()": "06fdde03",
    "ownerOf(uint256)": "6352211e",
    "renounceRole(bytes32,address)": "36568abe",
    "revokeRole(bytes32,address)": "d547741f",
    "safeMint(address,uint256)": "a1448194",
    "safeTransferFrom(address,address,uint256)": "42842e0e",
    "safeTransferFrom(address,address,uint256,bytes)": "b88d4fde",
    "setApprovalForAll(address,bool)": "a22cb465",
    "supportsInterface(bytes4)": "01ffc9a7",
    "symbol()": "95d89b41",
    "tokenByIndex(uint256)": "4f6ccce7",
    "tokenOfOwnerByIndex(address,uint256)": "2f745c59",
    "tokenURI(uint256)": "c87b56dd",
    "totalSupply()": "18160ddd",
    "transferFrom(address,address,uint256)": "23b872dd"
  },
  "id": 96
}